{
  "_format": "hh-sol-artifact-1",
  "contractName": "OnlineServerMonitor",
  "sourceName": "contracts/OnlineServerCount.sol",
  "abi": [
    {
      "inputs": [],
      "stateMutability": "nonpayable",
      "type": "constructor"
    },
    {
      "inputs": [],
      "name": "getOnlineServerCount",
      "outputs": [
        {
          "internalType": "uint256",
          "name": "",
          "type": "uint256"
        }
      ],
      "stateMutability": "view",
      "type": "function"
    },
    {
      "inputs": [],
      "name": "onlineServerCount",
      "outputs": [
        {
          "internalType": "uint256",
          "name": "",
          "type": "uint256"
        }
      ],
      "stateMutability": "view",
      "type": "function"
    },
    {
      "inputs": [],
      "name": "owner",
      "outputs": [
        {
          "internalType": "address",
          "name": "",
          "type": "address"
        }
      ],
      "stateMutability": "view",
      "type": "function"
    },
    {
      "inputs": [],
      "name": "reached1000ServerCount",
      "outputs": [],
      "stateMutability": "nonpayable",
      "type": "function"
    },
    {
      "inputs": [],
      "name": "reached1000ServerCountValue",
      "outputs": [
        {
          "internalType": "bool",
          "name": "",
          "type": "bool"
        }
      ],
      "stateMutability": "view",
      "type": "function"
    },
    {
      "inputs": [
        {
          "internalType": "uint256",
          "name": "_count",
          "type": "uint256"
        }
      ],
      "name": "updateOnlineServerCount",
      "outputs": [],
      "stateMutability": "nonpayable",
      "type": "function"
    }
  ],
  "bytecode": "0x608060405234801561001057600080fd5b50336001806101000a81548173ffffffffffffffffffffffffffffffffffffffff021916908373ffffffffffffffffffffffffffffffffffffffff1602179055506000600160006101000a81548160ff0219169083151502179055506104648061007b6000396000f3fe608060405234801561001057600080fd5b50600436106100625760003560e01c806363f48996146100675780638da5cb5b14610083578063a08c4eec146100a1578063abaf6060146100bf578063bbcba63c146100dd578063f36f3fc9146100e7575b600080fd5b610081600480360381019061007c91906102c8565b610105565b005b61008b61019d565b6040516100989190610336565b60405180910390f35b6100a96101c1565b6040516100b6919061036c565b60405180910390f35b6100c76101d4565b6040516100d49190610396565b60405180910390f35b6100e56101dd565b005b6100ef610287565b6040516100fc9190610396565b60405180910390f35b60018054906101000a900473ffffffffffffffffffffffffffffffffffffffff1673ffffffffffffffffffffffffffffffffffffffff163373ffffffffffffffffffffffffffffffffffffffff1614610193576040517f08c379a000000000000000000000000000000000000000000000000000000000815260040161018a9061040e565b60405180910390fd5b8060008190555050565b60018054906101000a900473ffffffffffffffffffffffffffffffffffffffff1681565b600160009054906101000a900460ff1681565b60008054905090565b60018054906101000a900473ffffffffffffffffffffffffffffffffffffffff1673ffffffffffffffffffffffffffffffffffffffff163373ffffffffffffffffffffffffffffffffffffffff161461026b576040517f08c379a00000000000000000000000000000000000000000000000000000000081526004016102629061040e565b60405180910390fd5b60018060006101000a81548160ff021916908315150217905550565b60005481565b600080fd5b6000819050919050565b6102a581610292565b81146102b057600080fd5b50565b6000813590506102c28161029c565b92915050565b6000602082840312156102de576102dd61028d565b5b60006102ec848285016102b3565b91505092915050565b600073ffffffffffffffffffffffffffffffffffffffff82169050919050565b6000610320826102f5565b9050919050565b61033081610315565b82525050565b600060208201905061034b6000830184610327565b92915050565b60008115159050919050565b61036681610351565b82525050565b6000602082019050610381600083018461035d565b92915050565b61039081610292565b82525050565b60006020820190506103ab6000830184610387565b92915050565b600082825260208201905092915050565b7f4e6f7420617574686f72697a6564000000000000000000000000000000000000600082015250565b60006103f8600e836103b1565b9150610403826103c2565b602082019050919050565b60006020820190508181036000830152610427816103eb565b905091905056fea26469706673582212205247224ff2e08aae7f1c01c632763a916fb8d294c1bac9b509ff22df9d7df80764736f6c63430008180033",
  "linkReferences": {},
  "deployedLinkReferences": {}
}