{
    "_format": "hh-sol-artifact-1",
    "contractName": "OnlineServerMonitor",
    "sourceName": "contracts/OnlineServerCount.sol",
    "abi": [
        {
            "inputs": [],
            "stateMutability": "nonpayable",
            "type": "constructor"
        },
        {
            "inputs": [],
            "name": "getOnlineServerCount",
            "outputs": [
                {
                    "internalType": "uint256",
                    "name": "",
                    "type": "uint256"
                }
            ],
            "stateMutability": "view",
            "type": "function"
        },
        {
            "inputs": [],
            "name": "onlineServerCount",
            "outputs": [
                {
                    "internalType": "uint256",
                    "name": "",
                    "type": "uint256"
                }
            ],
            "stateMutability": "view",
            "type": "function"
        },
        {
            "inputs": [],
            "name": "owner",
            "outputs": [
                {
                    "internalType": "address",
                    "name": "",
                    "type": "address"
                }
            ],
            "stateMutability": "view",
            "type": "function"
        },
        {
            "inputs": [
                {
                    "internalType": "uint256",
                    "name": "_count",
                    "type": "uint256"
                }
            ],
            "name": "updateOnlineServerCount",
            "outputs": [],
            "stateMutability": "nonpayable",
            "type": "function"
        }
    ],
    "bytecode": "0x608060405234801561001057600080fd5b5033600160006101000a81548173ffffffffffffffffffffffffffffffffffffffff021916908373ffffffffffffffffffffffffffffffffffffffff160217905550610337806100616000396000f3fe608060405234801561001057600080fd5b506004361061004c5760003560e01c806363f48996146100515780638da5cb5b1461006d578063abaf60601461008b578063f36f3fc9146100a9575b600080fd5b61006b600480360381019061006691906101d1565b6100c7565b005b610075610161565b604051610082919061023f565b60405180910390f35b610093610187565b6040516100a09190610269565b60405180910390f35b6100b1610190565b6040516100be9190610269565b60405180910390f35b600160009054906101000a900473ffffffffffffffffffffffffffffffffffffffff1673ffffffffffffffffffffffffffffffffffffffff163373ffffffffffffffffffffffffffffffffffffffff1614610157576040517f08c379a000000000000000000000000000000000000000000000000000000000815260040161014e906102e1565b60405180910390fd5b8060008190555050565b600160009054906101000a900473ffffffffffffffffffffffffffffffffffffffff1681565b60008054905090565b60005481565b600080fd5b6000819050919050565b6101ae8161019b565b81146101b957600080fd5b50565b6000813590506101cb816101a5565b92915050565b6000602082840312156101e7576101e6610196565b5b60006101f5848285016101bc565b91505092915050565b600073ffffffffffffffffffffffffffffffffffffffff82169050919050565b6000610229826101fe565b9050919050565b6102398161021e565b82525050565b60006020820190506102546000830184610230565b92915050565b6102638161019b565b82525050565b600060208201905061027e600083018461025a565b92915050565b600082825260208201905092915050565b7f4e6f7420617574686f72697a6564000000000000000000000000000000000000600082015250565b60006102cb600e83610284565b91506102d682610295565b602082019050919050565b600060208201905081810360008301526102fa816102be565b905091905056fea264697066735822122037d566970634d701e28af7610885f0e3bba6d6c342959ab22e5e3d0ecb2023f564736f6c63430008180033",
    "linkReferences": {},
    "deployedLinkReferences": {}
}